{
    "txid": "f9d32f867bafa1c9dedce76996428aea364e4de37540d7268b056b6869840394",
    "hash": "f9d32f867bafa1c9dedce76996428aea364e4de37540d7268b056b6869840394",
    "version": 1,
    "time": 0,
    "size": 227,
    "vsize": 227,
    "weight": 908,
    "locktime": 0,
    "vin": [
        {
            "txid": "4d49a71ec9da436f71ec4ee231d04f292a29cd316f598bb7068feccabdc59485",
            "vout": 0,
            "scriptSig": {
                "asm": "3044022062fd1bab41952a2321f86652f6968a4d2325af401650f6fb7669e808b667adbf022074541ef92adb999f04c8af4e2876ae5c652447f6523e266493ab21541eb4da7e[ALL] 0479be667ef9dcbbac55a06295ce870b07029bfcdb2dce28d959f2815b16f81798483ada7726a3c4655da4fbfc0e1108a8fd17b448a68554199c47d08ffb10d4b8",
                "hex": "473044022062fd1bab41952a2321f86652f6968a4d2325af401650f6fb7669e808b667adbf022074541ef92adb999f04c8af4e2876ae5c652447f6523e266493ab21541eb4da7e01410479be667ef9dcbbac55a06295ce870b07029bfcdb2dce28d959f2815b16f81798483ada7726a3c4655da4fbfc0e1108a8fd17b448a68554199c47d08ffb10d4b8"
            },
            "sequence": 4294967295
        }
    ],
    "vout": [
        {
            "value": 0.00100000,
            "n": 0,
            "scriptPubKey": {
                "asm": "OP_DUP OP_HASH160 5834479edbbe0539b31ffd3a8f8ebadc2165ed01 OP_EQUALVERIFY OP_CHECKSIG",
                "desc": "addr(BCVTi4M8BaN7Eai5xeEVu9VYB3HGpT93JL)#c088gxge",
                "hex": "76a9145834479edbbe0539b31ffd3a8f8ebadc2165ed0188ac",
                "address": "BCVTi4M8BaN7Eai5xeEVu9VYB3HGpT93JL",
                "type": "pubkeyhash"
            }
        }
    ],
    "hex": "0100000000000000018594c5bdcaec8f06b78b596f31cd292a294fd031e24eec716f43dac91ea7494d000000008a473044022062fd1bab41952a2321f86652f6968a4d2325af401650f6fb7669e808b667adbf022074541ef92adb999f04c8af4e2876ae5c652447f6523e266493ab21541eb4da7e01410479be667ef9dcbbac55a06295ce870b07029bfcdb2dce28d959f2815b16f81798483ada7726a3c4655da4fbfc0e1108a8fd17b448a68554199c47d08ffb10d4b8ffffffff01a0860100000000001976a9145834479edbbe0539b31ffd3a8f8ebadc2165ed0188ac00000000"
}
